{
  "contractName": "YoutubeViews",
  "abi": [
    {
      "constant": true,
      "inputs": [],
      "name": "viewsCount",
      "outputs": [
        {
          "name": "",
          "type": "string"
        }
      ],
      "payable": false,
      "stateMutability": "view",
      "type": "function"
    },
    {
      "inputs": [],
      "payable": false,
      "stateMutability": "nonpayable",
      "type": "constructor"
    },
    {
      "anonymous": false,
      "inputs": [
        {
          "indexed": false,
          "name": "description",
          "type": "string"
        }
      ],
      "name": "newOraclizeQuery",
      "type": "event"
    },
    {
      "anonymous": false,
      "inputs": [
        {
          "indexed": false,
          "name": "views",
          "type": "string"
        }
      ],
      "name": "newYoutubeViewsCount",
      "type": "event"
    },
    {
      "constant": false,
      "inputs": [
        {
          "name": "myid",
          "type": "bytes32"
        },
        {
          "name": "result",
          "type": "string"
        }
      ],
      "name": "__callback",
      "outputs": [],
      "payable": false,
      "stateMutability": "nonpayable",
      "type": "function"
    },
    {
      "constant": false,
      "inputs": [
        {
          "name": "myid",
          "type": "bytes32"
        },
        {
          "name": "result",
          "type": "string"
        },
        {
          "name": "proof",
          "type": "bytes"
        }
      ],
      "name": "__callback",
      "outputs": [],
      "payable": false,
      "stateMutability": "nonpayable",
      "type": "function"
    },
    {
      "constant": false,
      "inputs": [],
      "name": "update",
      "outputs": [],
      "payable": true,
      "stateMutability": "payable",
      "type": "function"
    }
  ],
  "bytecode": "0x606060405234156200001057600080fd5b736f485c8bf6fc43ea212e93bbf8ce046c7f1cb4756000806101000a81548173ffffffffffffffffffffffffffffffffffffffff021916908373ffffffffffffffffffffffffffffffffffffffff160217905550620000826200008864010000000002620003cf176401000000009004565b62000e01565b7f46cb989ef9cef13e930e3b7f286225a086e716a90d63e0b7da85d310a9db0c9a6040518080602001828103825260358152602001807f4f7261636c697a65207175657279207761732073656e742c207374616e64696e81526020017f6720627920666f722074686520616e737765722e2e000000000000000000000081525060400191505060405180910390a1620002136040805190810160405280600381526020017f55524c000000000000000000000000000000000000000000000000000000000081525060a060405190810160405280606981526020017f68746d6c2868747470733a2f2f7777772e796f75747562652e636f6d2f77617481526020017f63683f763d39625a6b70377131396630292e7870617468282f2f2a5b636f6e7481526020017f61696e732840636c6173732c202277617463682d766965772d636f756e74222981526020017f5d2f74657874282929000000000000000000000000000000000000000000000081525062000216640100000000026200085d176401000000009004565b50565b60008060008060009054906101000a900473ffffffffffffffffffffffffffffffffffffffff1673ffffffffffffffffffffffffffffffffffffffff1614806200029f575060006200029d6000809054906101000a900473ffffffffffffffffffffffffffffffffffffffff166200079a6401000000000262000d9f176401000000009004565b145b15620002c757620002c56000620007a56401000000000262000daa176401000000009004565b505b6000809054906101000a900473ffffffffffffffffffffffffffffffffffffffff1673ffffffffffffffffffffffffffffffffffffffff166338cc48316000604051602001526040518163ffffffff167c0100000000000000000000000000000000000000000000000000000000028152600401602060405180830381600087803b15156200035557600080fd5b6102c65a03f115156200036757600080fd5b5050506040518051905073ffffffffffffffffffffffffffffffffffffffff16600160009054906101000a900473ffffffffffffffffffffffffffffffffffffffff1673ffffffffffffffffffffffffffffffffffffffff16141515620004b3576000809054906101000a900473ffffffffffffffffffffffffffffffffffffffff1673ffffffffffffffffffffffffffffffffffffffff166338cc48316000604051602001526040518163ffffffff167c0100000000000000000000000000000000000000000000000000000000028152600401602060405180830381600087803b15156200045657600080fd5b6102c65a03f115156200046857600080fd5b50505060405180519050600160006101000a81548173ffffffffffffffffffffffffffffffffffffffff021916908373ffffffffffffffffffffffffffffffffffffffff1602179055505b600160009054906101000a900473ffffffffffffffffffffffffffffffffffffffff1673ffffffffffffffffffffffffffffffffffffffff1663524f3889856000604051602001526040518263ffffffff167c01000000000000000000000000000000000000000000000000000000000281526004018080602001828103825283818151815260200191508051906020019080838360005b83811015620005685780820151818401526020810190506200054b565b50505050905090810190601f168015620005965780820380516001836020036101000a031916815260200191505b5092505050602060405180830381600087803b1515620005b557600080fd5b6102c65a03f11515620005c757600080fd5b50505060405180519050905062030d403a02670de0b6b3a764000001811115620005f8576000600102915062000793565b600160009054906101000a900473ffffffffffffffffffffffffffffffffffffffff1673ffffffffffffffffffffffffffffffffffffffff1663adf59f9982600087876000604051602001526040518563ffffffff167c0100000000000000000000000000000000000000000000000000000000028152600401808481526020018060200180602001838103835285818151815260200191508051906020019080838360005b83811015620006bb5780820151818401526020810190506200069e565b50505050905090810190601f168015620006e95780820380516001836020036101000a031916815260200191505b50838103825284818151815260200191508051906020019080838360005b838110156200072457808201518184015260208101905062000707565b50505050905090810190601f168015620007525780820380516001836020036101000a031916815260200191505b50955050505050506020604051808303818588803b15156200077357600080fd5b6125ee5a03f115156200078557600080fd5b505050506040518051905091505b5092915050565b6000813b9050919050565b600080620007db731d3b2638a7cc9f2cb3d298a3da7a90b67e5506ed6200079a6401000000000262000d9f176401000000009004565b11156200089457731d3b2638a7cc9f2cb3d298a3da7a90b67e5506ed6000806101000a81548173ffffffffffffffffffffffffffffffffffffffff021916908373ffffffffffffffffffffffffffffffffffffffff1602179055506200088a6040805190810160405280600b81526020017f6574685f6d61696e6e657400000000000000000000000000000000000000000081525062000d36640100000000026200123b176401000000009004565b6001905062000d31565b6000620008c973c03a2615d5efaf5f49f60b7bb6583eaec212fdf16200079a6401000000000262000d9f176401000000009004565b1115620009825773c03a2615d5efaf5f49f60b7bb6583eaec212fdf16000806101000a81548173ffffffffffffffffffffffffffffffffffffffff021916908373ffffffffffffffffffffffffffffffffffffffff160217905550620009786040805190810160405280600c81526020017f6574685f726f707374656e33000000000000000000000000000000000000000081525062000d36640100000000026200123b176401000000009004565b6001905062000d31565b6000620009b773b7a07bcf2ba2f2703b24c0691b5278999c59ac7e6200079a6401000000000262000d9f176401000000009004565b111562000a705773b7a07bcf2ba2f2703b24c0691b5278999c59ac7e6000806101000a81548173ffffffffffffffffffffffffffffffffffffffff021916908373ffffffffffffffffffffffffffffffffffffffff16021790555062000a666040805190810160405280600981526020017f6574685f6b6f76616e000000000000000000000000000000000000000000000081525062000d36640100000000026200123b176401000000009004565b6001905062000d31565b600062000aa573146500cfd35b22e4a392fe0adc06de1a1368ed486200079a6401000000000262000d9f176401000000009004565b111562000b5e5773146500cfd35b22e4a392fe0adc06de1a1368ed486000806101000a81548173ffffffffffffffffffffffffffffffffffffffff021916908373ffffffffffffffffffffffffffffffffffffffff16021790555062000b546040805190810160405280600b81526020017f6574685f72696e6b65627900000000000000000000000000000000000000000081525062000d36640100000000026200123b176401000000009004565b6001905062000d31565b600062000b93736f485c8bf6fc43ea212e93bbf8ce046c7f1cb4756200079a6401000000000262000d9f176401000000009004565b111562000bf857736f485c8bf6fc43ea212e93bbf8ce046c7f1cb4756000806101000a81548173ffffffffffffffffffffffffffffffffffffffff021916908373ffffffffffffffffffffffffffffffffffffffff1602179055506001905062000d31565b600062000c2d7320e12a1f859b3feae5fb2a0a32c18f5a65555bbf6200079a6401000000000262000d9f176401000000009004565b111562000c92577320e12a1f859b3feae5fb2a0a32c18f5a65555bbf6000806101000a81548173ffffffffffffffffffffffffffffffffffffffff021916908373ffffffffffffffffffffffffffffffffffffffff1602179055506001905062000d31565b600062000cc77351efaf4c8b3c9afbd5ab9f4bbc82784ab6ef8faa6200079a6401000000000262000d9f176401000000009004565b111562000d2c577351efaf4c8b3c9afbd5ab9f4bbc82784ab6ef8faa6000806101000a81548173ffffffffffffffffffffffffffffffffffffffff021916908373ffffffffffffffffffffffffffffffffffffffff1602179055506001905062000d31565b600090505b919050565b806002908051906020019062000d4e92919062000d52565b5050565b828054600181600116156101000203166002900490600052602060002090601f016020900481019282601f1062000d9557805160ff191683800117855562000dc6565b8280016001018555821562000dc6579182015b8281111562000dc557825182559160200191906001019062000da8565b5b50905062000dd5919062000dd9565b5090565b62000dfe91905b8082111562000dfa57600081600090555060010162000de0565b5090565b90565b6113268062000e116000396000f300606060405260043610610062576000357c0100000000000000000000000000000000000000000000000000000000900463ffffffff1680631e7d6de21461006757806327dc297e146100f557806338bbfa501461015f578063a2e620451461020c575b600080fd5b341561007257600080fd5b61007a610216565b6040518080602001828103825283818151815260200191508051906020019080838360005b838110156100ba57808201518184015260208101905061009f565b50505050905090810190601f1680156100e75780820380516001836020036101000a031916815260200191505b509250505060405180910390f35b341561010057600080fd5b61015d60048080356000191690602001909190803590602001908201803590602001908080601f016020809104026020016040519081016040528093929190818152602001838380828437820191505050505050919050506102b4565b005b341561016a57600080fd5b61020a60048080356000191690602001909190803590602001908201803590602001908080601f0160208091040260200160405190810160405280939291908181526020018383808284378201915050505050509190803590602001908201803590602001908080601f016020809104026020016040519081016040528093929190818152602001838380828437820191505050505050919050506103ca565b005b6102146103cf565b005b60058054600181600116156101000203166002900480601f0160208091040260200160405190810160405280929190818152602001828054600181600116156101000203166002900480156102ac5780601f10610281576101008083540402835291602001916102ac565b820191906000526020600020905b81548152906001019060200180831161028f57829003601f168201915b505050505081565b6102bc610547565b73ffffffffffffffffffffffffffffffffffffffff163373ffffffffffffffffffffffffffffffffffffffff161415156102f557600080fd5b806005908051906020019061030b929190611255565b507f04304d91ebb5feac84c5dd724885333fb232a51ed4070f0dcec26a1b006470de600560405180806020018281038252838181546001816001161561010002031660029004815260200191508054600181600116156101000203166002900480156103b85780601f1061038d576101008083540402835291602001916103b8565b820191906000526020600020905b81548152906001019060200180831161039b57829003601f168201915b50509250505060405180910390a15050565b505050565b7f46cb989ef9cef13e930e3b7f286225a086e716a90d63e0b7da85d310a9db0c9a6040518080602001828103825260358152602001807f4f7261636c697a65207175657279207761732073656e742c207374616e64696e81526020017f6720627920666f722074686520616e737765722e2e000000000000000000000081525060400191505060405180910390a16105446040805190810160405280600381526020017f55524c000000000000000000000000000000000000000000000000000000000081525060a060405190810160405280606981526020017f68746d6c2868747470733a2f2f7777772e796f75747562652e636f6d2f77617481526020017f63683f763d39625a6b70377131396630292e7870617468282f2f2a5b636f6e7481526020017f61696e732840636c6173732c202277617463682d766965772d636f756e74222981526020017f5d2f74657874282929000000000000000000000000000000000000000000000081525061085d565b50565b6000806000809054906101000a900473ffffffffffffffffffffffffffffffffffffffff1673ffffffffffffffffffffffffffffffffffffffff1614806105b7575060006105b56000809054906101000a900473ffffffffffffffffffffffffffffffffffffffff16610d9f565b145b156105c8576105c66000610daa565b505b6000809054906101000a900473ffffffffffffffffffffffffffffffffffffffff1673ffffffffffffffffffffffffffffffffffffffff166338cc48316000604051602001526040518163ffffffff167c0100000000000000000000000000000000000000000000000000000000028152600401602060405180830381600087803b151561065557600080fd5b6102c65a03f1151561066657600080fd5b5050506040518051905073ffffffffffffffffffffffffffffffffffffffff16600160009054906101000a900473ffffffffffffffffffffffffffffffffffffffff1673ffffffffffffffffffffffffffffffffffffffff161415156107af576000809054906101000a900473ffffffffffffffffffffffffffffffffffffffff1673ffffffffffffffffffffffffffffffffffffffff166338cc48316000604051602001526040518163ffffffff167c0100000000000000000000000000000000000000000000000000000000028152600401602060405180830381600087803b151561075357600080fd5b6102c65a03f1151561076457600080fd5b50505060405180519050600160006101000a81548173ffffffffffffffffffffffffffffffffffffffff021916908373ffffffffffffffffffffffffffffffffffffffff1602179055505b600160009054906101000a900473ffffffffffffffffffffffffffffffffffffffff1673ffffffffffffffffffffffffffffffffffffffff1663c281d19e6000604051602001526040518163ffffffff167c0100000000000000000000000000000000000000000000000000000000028152600401602060405180830381600087803b151561083d57600080fd5b6102c65a03f1151561084e57600080fd5b50505060405180519050905090565b60008060008060009054906101000a900473ffffffffffffffffffffffffffffffffffffffff1673ffffffffffffffffffffffffffffffffffffffff1614806108cf575060006108cd6000809054906101000a900473ffffffffffffffffffffffffffffffffffffffff16610d9f565b145b156108e0576108de6000610daa565b505b6000809054906101000a900473ffffffffffffffffffffffffffffffffffffffff1673ffffffffffffffffffffffffffffffffffffffff166338cc48316000604051602001526040518163ffffffff167c0100000000000000000000000000000000000000000000000000000000028152600401602060405180830381600087803b151561096d57600080fd5b6102c65a03f1151561097e57600080fd5b5050506040518051905073ffffffffffffffffffffffffffffffffffffffff16600160009054906101000a900473ffffffffffffffffffffffffffffffffffffffff1673ffffffffffffffffffffffffffffffffffffffff16141515610ac7576000809054906101000a900473ffffffffffffffffffffffffffffffffffffffff1673ffffffffffffffffffffffffffffffffffffffff166338cc48316000604051602001526040518163ffffffff167c0100000000000000000000000000000000000000000000000000000000028152600401602060405180830381600087803b1515610a6b57600080fd5b6102c65a03f11515610a7c57600080fd5b50505060405180519050600160006101000a81548173ffffffffffffffffffffffffffffffffffffffff021916908373ffffffffffffffffffffffffffffffffffffffff1602179055505b600160009054906101000a900473ffffffffffffffffffffffffffffffffffffffff1673ffffffffffffffffffffffffffffffffffffffff1663524f3889856000604051602001526040518263ffffffff167c01000000000000000000000000000000000000000000000000000000000281526004018080602001828103825283818151815260200191508051906020019080838360005b83811015610b7a578082015181840152602081019050610b5f565b50505050905090810190601f168015610ba75780820380516001836020036101000a031916815260200191505b5092505050602060405180830381600087803b1515610bc557600080fd5b6102c65a03f11515610bd657600080fd5b50505060405180519050905062030d403a02670de0b6b3a764000001811115610c055760006001029150610d98565b600160009054906101000a900473ffffffffffffffffffffffffffffffffffffffff1673ffffffffffffffffffffffffffffffffffffffff1663adf59f9982600087876000604051602001526040518563ffffffff167c0100000000000000000000000000000000000000000000000000000000028152600401808481526020018060200180602001838103835285818151815260200191508051906020019080838360005b83811015610cc6578082015181840152602081019050610cab565b50505050905090810190601f168015610cf35780820380516001836020036101000a031916815260200191505b50838103825284818151815260200191508051906020019080838360005b83811015610d2c578082015181840152602081019050610d11565b50505050905090810190601f168015610d595780820380516001836020036101000a031916815260200191505b50955050505050506020604051808303818588803b1515610d7957600080fd5b6125ee5a03f11515610d8a57600080fd5b505050506040518051905091505b5092915050565b6000813b9050919050565b600080610dca731d3b2638a7cc9f2cb3d298a3da7a90b67e5506ed610d9f565b1115610e6b57731d3b2638a7cc9f2cb3d298a3da7a90b67e5506ed6000806101000a81548173ffffffffffffffffffffffffffffffffffffffff021916908373ffffffffffffffffffffffffffffffffffffffff160217905550610e626040805190810160405280600b81526020017f6574685f6d61696e6e657400000000000000000000000000000000000000000081525061123b565b60019050611236565b6000610e8a73c03a2615d5efaf5f49f60b7bb6583eaec212fdf1610d9f565b1115610f2b5773c03a2615d5efaf5f49f60b7bb6583eaec212fdf16000806101000a81548173ffffffffffffffffffffffffffffffffffffffff021916908373ffffffffffffffffffffffffffffffffffffffff160217905550610f226040805190810160405280600c81526020017f6574685f726f707374656e33000000000000000000000000000000000000000081525061123b565b60019050611236565b6000610f4a73b7a07bcf2ba2f2703b24c0691b5278999c59ac7e610d9f565b1115610feb5773b7a07bcf2ba2f2703b24c0691b5278999c59ac7e6000806101000a81548173ffffffffffffffffffffffffffffffffffffffff021916908373ffffffffffffffffffffffffffffffffffffffff160217905550610fe26040805190810160405280600981526020017f6574685f6b6f76616e000000000000000000000000000000000000000000000081525061123b565b60019050611236565b600061100a73146500cfd35b22e4a392fe0adc06de1a1368ed48610d9f565b11156110ab5773146500cfd35b22e4a392fe0adc06de1a1368ed486000806101000a81548173ffffffffffffffffffffffffffffffffffffffff021916908373ffffffffffffffffffffffffffffffffffffffff1602179055506110a26040805190810160405280600b81526020017f6574685f72696e6b65627900000000000000000000000000000000000000000081525061123b565b60019050611236565b60006110ca736f485c8bf6fc43ea212e93bbf8ce046c7f1cb475610d9f565b111561112d57736f485c8bf6fc43ea212e93bbf8ce046c7f1cb4756000806101000a81548173ffffffffffffffffffffffffffffffffffffffff021916908373ffffffffffffffffffffffffffffffffffffffff16021790555060019050611236565b600061114c7320e12a1f859b3feae5fb2a0a32c18f5a65555bbf610d9f565b11156111af577320e12a1f859b3feae5fb2a0a32c18f5a65555bbf6000806101000a81548173ffffffffffffffffffffffffffffffffffffffff021916908373ffffffffffffffffffffffffffffffffffffffff16021790555060019050611236565b60006111ce7351efaf4c8b3c9afbd5ab9f4bbc82784ab6ef8faa610d9f565b1115611231577351efaf4c8b3c9afbd5ab9f4bbc82784ab6ef8faa6000806101000a81548173ffffffffffffffffffffffffffffffffffffffff021916908373ffffffffffffffffffffffffffffffffffffffff16021790555060019050611236565b600090505b919050565b8060029080519060200190611251929190611255565b5050565b828054600181600116156101000203166002900490600052602060002090601f016020900481019282601f1061129657805160ff19168380011785556112c4565b828001600101855582156112c4579182015b828111156112c35782518255916020019190600101906112a8565b5b5090506112d191906112d5565b5090565b6112f791905b808211156112f35760008160009055506001016112db565b5090565b905600a165627a7a723058205e7b284d0caa2eabeb2709f0872e55b4c661f972f728c0a7aba1ffd369ac8a0a0029",
  "source": "\n/*\n   Youtube video views\n\n   This contract keeps in storage a views counter\n   for a given Youtube video.\n*/\n\n\npragma solidity ^0.4.0;\nimport \"./OraclizeAPI.sol\";\n\ncontract YoutubeViews is usingOraclize {\n\n    string public viewsCount;\n\n    event newOraclizeQuery(string description);\n    event newYoutubeViewsCount(string views);\n\n    function YoutubeViews() {\n        OAR = OraclizeAddrResolverI(0x6f485C8BF6fc43eA212E93BBF8ce046C7f1cb475);\n\n        update();\n    }\n\n    function __callback(bytes32 myid, string result) {\n        if (msg.sender != oraclize_cbAddress()) throw;\n        viewsCount = result;\n        newYoutubeViewsCount(viewsCount);\n        // do something with viewsCount. like tipping the author if viewsCount > X?\n    }\n\n    function update() payable {\n        newOraclizeQuery(\"Oraclize query was sent, standing by for the answer..\");\n        oraclize_query('URL', 'html(https://www.youtube.com/watch?v=9bZkp7q19f0).xpath(//*[contains(@class, \"watch-view-count\")]/text())');\n    }\n\n}\n",
  "sourcePath": "/home/nerta/Ethereum/blockchainResearch/workspace/truffle/contracts/YoutubeViews.sol",
  "compiler": {
    "name": "solc",
    "version": "0.4.19+commit.c4cbbb05.Emscripten.clang"
  },
  "schemaVersion": "2.0.0",
  "updatedAt": "2018-04-04T11:10:11.158Z"
}